:100000000C942A000C943F000C943F000C943F0089
:100010000C943F000C943F000C943F000C943F0064
:100020000C943F000C943F000C943F000C943F0054
:100030000C943F000C943F000C943F000C943F0044
:100040000C943F000C943F000C943F000C943F0034
:100050000C943F0011241FBECFE5D8E0DEBFCDBF1A
:1000600011E0A0E6B0E0E2E6F5E202C005900D92F4
:10007000AA37B107D9F70E949F110C94AF120C94C4
:100080000000EF92FF920F931F937B018C0120E001
:1000900030E040E05FE40E94ED0388238CF0C8016B
:1000A000B70120E030E040E05FE40E94B9010E9427
:1000B0004D049B01AC01205030404040504806C0E8
:1000C000C801B7010E944D049B01AC01B901CA01EE
:1000D0001F910F91FF90EF900895A0E0B0E0E3E74B
:1000E000F0E00C943312DC012B01FA019C91923068
:1000F00008F439C1EB018881823008F433C19430AF
:1001000069F4843009F02FC111969C91119789816F
:10011000981709F428C1A2E7B0E025C1843009F49A
:1001200021C18230A9F4923009F01DC19A01AD01BC
:1001300088E0EA010990AE01E90109929E0181502F
:10014000C1F7E201898111969C918923818308C1BD
:10015000923009F407C112962D903C901397EB0151
:100160008A819B811496AD90BD90CD90DC901797BD
:10017000EC80FD800E811F819101281B390BB90194
:1001800037FF04C066277727621B730B6032710547
:100190000CF061C0121613066CF537014801062EEB
:1001A00004C096948794779467940A94D2F721E0D8
:1001B00030E040E050E004C0220F331F441F551FC1
:1001C0006A95D2F721503040404050402E213F21C7
:1001D00040235123211531054105510521F021E02E
:1001E00030E040E050E079018A01E628F72808294C
:1001F00019293CC0232BD1F1260E371E35014601AB
:10020000062E04C096948794779467940A94D2F744
:1002100021E030E040E050E004C0220F331F441FD3
:10022000551F6A95D2F721503040404050402A2156
:100230003B214C215D21211531054105510521F05E
:1002400021E030E040E050E059016A01A628B728DB
:10025000C828D9280BC0821593052CF01C01AA24AC
:10026000BB24650103C0EE24FF24870111969C91F5
:10027000D20111968C91981709F445C0992339F051
:10028000A80197012A193B094C095D0906C0A6017E
:1002900095012E193F09400B510B57FD08C01182E3
:1002A0003382228224833583468357831DC081E0B5
:1002B00081833382228288279927DC01821B930B5A
:1002C000A40BB50B84839583A683B7830DC0220F3F
:1002D000331F441F551F24833583468357838281F0
:1002E000938101979383828324813581468157814D
:1002F000DA01C9010197A109B1098F5F9F4FAF4F83
:10030000BF4328F30BC0918333822282EA0CFB1C8B
:100310000C1D1D1DE482F5820683178383E0808314
:10032000248135814681578157FF1AC0C901AA2708
:1003300097FDA095BA2F81709070A070B0705695FF
:10034000479537952795822B932BA42BB52B848328
:100350009583A683B7838281938101969383828359
:10036000DF0101C0D201CD01CDB7DEB7E2E10C94CF
:100370004F12A0E2B0E0EFEBF1E00C943F12698382
:100380007A838B839C832D833E834F835887E9E058
:10039000EE2EF12CEC0EFD1ECE010196B7010E944F
:1003A0003E068E010F5E1F4FCE010596B8010E94DA
:1003B0003E068A8991E089278A8BC701B801AE0180
:1003C000475E5F4F0E946D000E946905A096E6E0BF
:1003D0000C945B12A0E2B0E0E0EFF1E00C943F126D
:1003E00069837A838B839C832D833E834F835887D5
:1003F000F9E0EF2EF12CEC0EFD1ECE010196B701B7
:100400000E943E068E010F5E1F4FCE010596B80179
:100410000E943E06C701B801AE01475E5F4F0E94D1
:100420006D000E946905A096E6E00C945B12A0E2C4
:10043000B0E0EDE1F2E00C94331269837A838B83B0
:100440009C832D833E834F835887CE010196BE0146
:10045000675F7F4F0E943E06CE010596BE016F5E2C
:100460007F4F0E943E069985923088F089898230BC
:10047000C8F0943019F4823051F404C0843029F467
:10048000923081F482E790E0C6C0923049F420E0D7
:100490009A858A89981321E02A87CE010996BBC0E4
:1004A000823049F420E09A858A89981321E02A8BCA
:1004B000CE014196B0C02D843E844F8458886D880B
:1004C0007E888F88988CEE24FF248701AA24BB2481
:1004D000650140E050E060E070E0E0E0F0E0C10184
:1004E00081709070892BE9F0E60CF71C081D191D2E
:1004F0009A01AB012A0D3B1D4C1D5D1D80E090E073
:10050000A0E0B0E0E614F7040805190520F481E046
:1005100090E0A0E0B0E0BA01A901480F591F6A1F9E
:100520007B1FAA0CBB1CCC1CDD1C97FE08C081E005
:1005300090E0A0E0B0E0A82AB92ACA2ADB2A3196C6
:10054000E032F10549F0660C771C881C991C569422
:10055000479437942794C3CFFA85EA892B893C893D
:100560008B859C85280F391F2E5F3F4F17C0CA010E
:1005700081709070892B61F016950795F794E79438
:1005800080E090E0A0E0B0E8E82AF92A0A2B1B2BD3
:1005900076956795579547952F5F3F4F77FDE7CF46
:1005A0000CC0440F551F661F771F17FD4160EE0CEE
:1005B000FF1C001F111F21503040403090E05907B0
:1005C00090E0690790E4790760F32B8F3C8FDB01A3
:1005D000CA018F779070A070B07080349105A1052A
:1005E000B10561F447FD0AC0E114F10401051105EC
:1005F00029F0405C5F4F6F4F7F4F40781A8EFE1797
:1006000011F081E08A8F4D8F5E8F6F8F78A383E02A
:10061000898FCE0149960E946905A096E2E10C946B
:100620004F12A8E1B0E0E7E1F3E00C943B126983DC
:100630007A838B839C832D833E834F835887B9E0D5
:10064000EB2EF12CEC0EFD1ECE010196B7010E949F
:100650003E068E010F5E1F4FCE010596B8010E9427
:100660003E062985223008F47EC03989323010F4E4
:10067000B8017CC08A859A8989278A87243011F03D
:10068000223031F4231709F06EC062E770E06EC0CB
:10069000343039F41D861E861F86188A1C861B86F8
:1006A00004C0323021F484E08987B7015FC02B8514
:1006B0003C858B899C89281B390B3C872B87ED84D3
:1006C000FE840F851889AD88BE88CF88D88CEA143F
:1006D000FB040C051D0540F4EE0CFF1C001F111F50
:1006E000215030403C872B8720E030E040E050E054
:1006F00080E090E0A0E0B0E460E070E0EA14FB0489
:100700000C051D0540F0282B392B4A2B5B2BEA18D2
:10071000FB080C091D09B695A79597958795EE0CD2
:10072000FF1C001F111F6F5F7F4F6F31710531F785
:10073000DA01C9018F779070A070B0708034910594
:10074000A105B10561F427FD0AC0E114F10401051A
:10075000110529F0205C3F4F4F4F5F4F20782D87C8
:100760003E874F87588BBE01675F7F4FCB010E944A
:1007700069056896EAE00C945712A8E1B0E0E3EC52
:10078000F3E00C943F1269837A838B839C832D83DF
:100790003E834F83588789E0E82EF12CEC0EFD1E36
:1007A000CE010196B7010E943E068E010F5E1F4FDB
:1007B000CE010596B8010E943E068985823040F040
:1007C0008989823028F0C701B8010E94B60601C0AD
:1007D0008FEF6896E6E00C945B12A8E1B0E0E3EFDF
:1007E000F3E00C943F1269837A838B839C832D837F
:1007F0003E834F83588789E0E82EF12CEC0EFD1ED6
:10080000CE010196B7010E943E068E010F5E1F4F7A
:10081000CE010596B8010E943E068985823040F0DF
:100820008989823028F0C701B8010E94B60601C04C
:100830008FEF6896E6E00C945B12A8E1B0E0E3E28B
:10084000F4E00C943F1269837A838B839C832D831D
:100850003E834F83588789E0E82EF12CEC0EFD1E75
:10086000CE010196B7010E943E068E010F5E1F4F1A
:10087000CE010596B8010E943E068985823040F07F
:100880008989823028F0C701B8010E94B60601C0EC
:1008900081E06896E6E00C945B12ACE0B0E0E3E542
:1008A000F4E00C94431269837A838B839C83CE019A
:1008B0000196BE016B5F7F4F0E943E068D818230A4
:1008C00061F1823050F1843021F48E81882351F11E
:1008D0002EC02F81388537FD20C06E812F31310524
:1008E0001CF06623F9F023C08EE190E0821B930B8D
:1008F00029853A854B855C8504C056954795379583
:1009000027958A95D2F76623B1F05095409530959A
:1009100021953F4F4F4F5F4F0EC020E030E040E049
:1009200050E009C02FEF3FEF4FEF5FE704C020E03A
:1009300030E040E050E8B901CA012C96E2E00C94A6
:100940005F12A8E0B0E0E7EAF4E00C943B127B0110
:100950008C01611571058105910519F482E0898387
:1009600060C083E089838EE1C82ED12CDC82CB82EB
:10097000ED82FE820F831887C801B7010E941A0515
:10098000FC013197F7FF3BC0222733272E1B3F0B7B
:1009900057016801022E04C0D694C794B794A79457
:1009A0000A94D2F740E050E060E070E081E090E02F
:1009B000A0E0B0E004C0880F991FAA1FBB1F2A95B2
:1009C000D2F70197A109B1098E219F21A023B1235C
:1009D0000097A105B10521F041E050E060E070E032
:1009E0004A295B296C297D294D835E836F83788733
:1009F0008EE190E08E1B9F0B9C838B8312C03097FF
:100A000081F00E2E04C0EE0CFF1C001F111F0A9473
:100A1000D2F7ED82FE820F831887CE1ADF0ADC82BE
:100A2000CB821A82CE0101960E9469052896EAE0DF
:100A30000C945712EF92FF920F931F937B018C013E
:100A400080E0E81680E0F80681E0080780E01807FB
:100A500088F48FEFE816F1040105110531F028F054
:100A600088E090E0A0E0B0E017C080E090E0A0E077
:100A7000B0E012C080E0E81680E0F80680E00807E9
:100A800081E0180728F088E190E0A0E0B0E004C021
:100A900080E190E0A0E0B0E020E230E040E050E013
:100AA000281B390B4A0B5B0B04C016950795F7946E
:100AB000E7948A95D2F7F701E658FF4F8081281B0B
:100AC000310941095109C9011F910F91FF90EF9020
:100AD0000895DF92EF92FF920F931F93FC01E48041
:100AE000F58006811781D1808081823048F480E0D2
:100AF00090E0A0E1B0E0E82AF92A0A2B1B2BA5C060
:100B0000843009F49FC0823021F4EE24FF24870151
:100B100005C0E114F1040105110519F4E0E0F0E06D
:100B200096C0628173819FEF623879070CF05BC0D9
:100B300022E83FEF261B370B2A3131052CF020E04D
:100B400030E040E050E02AC0B801A701022E04C006
:100B500076956795579547950A94D2F781E090E08E
:100B6000A0E0B0E004C0880F991FAA1FBB1F2A9500
:100B7000D2F70197A109B1098E219F21A023B123AA
:100B80000097A105B10521F081E090E0A0E0B0E080
:100B90009A01AB01282B392B4A2B5B2BDA01C901B7
:100BA0008F779070A070B07080349105A105B10569
:100BB00039F427FF09C0205C3F4F4F4F5F4F04C0FF
:100BC000215C3F4F4F4F5F4FE0E0F0E02030A0E06E
:100BD0003A07A0E04A07A0E45A0710F0E1E0F0E08D
:100BE00079018A0127C06038710564F5FB01E1587D
:100BF000FF4FD801C7018F779070A070B07080341C
:100C00009105A105B10539F4E7FE0DC080E490E03F
:100C1000A0E0B0E004C08FE390E0A0E0B0E0E80E18
:100C2000F91E0A1F1B1F17FF05C016950795F7949D
:100C3000E794319687E016950795F794E7948A959F
:100C4000D1F705C0EE24FF248701EFEFF0E06E2F0F
:100C5000679566276795902F9F77D794DD24D79463
:100C60008E2F8695492F462B582F5D29B701CA0133
:100C70001F910F91FF90EF90DF900895FC01DB0131
:100C8000408151812281622F6F7770E0221F2227DD
:100C9000221F9381892F880F822B282F30E0991FE4
:100CA0009927991F11969C93119721153105A9F544
:100CB000411551056105710511F482E037C082E8E4
:100CC0009FEF13969C938E9312979A01AB0167E066
:100CD000220F331F441F551F6A95D1F783E08C9371
:100CE0000DC0220F331F441F551F12968D919C91EA
:100CF0001397019713969C938E931297203080E060
:100D0000380780E0480780E4580758F314962D937D
:100D10003D934D935C93179708952F3F310579F4D8
:100D2000411551056105710519F484E08C9308950E
:100D300064FF03C081E08C9312C01C9210C02F5737
:100D4000304013963C932E93129783E08C9387E068
:100D5000440F551F661F771F8A95D1F7706414964C
:100D60004D935D936D937C93179708951F93DC01CA
:100D7000FB019C91923008F447C08081823008F4D6
:100D800043C0943051F411961C91843099F58181BF
:100D9000682F70E0611B71093FC0843021F09230F0
:100DA00031F48230B9F18181882389F12DC0119607
:100DB0001C9111978230F1F081811817D9F41296A5
:100DC0002D913C911397828193818217930794F020
:100DD00028173907BCF014968D919D910D90BC9108
:100DE000A02D2481358146815781281739074A076C
:100DF0005B0718F4112341F00AC082179307A40778
:100E0000B50740F4112319F061E070E005C06FEF01
:100E10007FEF02C060E070E0CB011F910895DF9387
:100E2000CF93CDB7DEB7EBE2F0E082E08083EAE279
:100E3000F0E088E18083E0E4F0E086E88083E0E4AD
:100E4000F0E01082E9E2F0E08CE08083CF91DF9166
:100E50000895DF93CF930F92CDB7DEB78983EBE28E
:100E6000F0E08081882F90E0807290700097B9F355
:100E7000ECE2F0E0898180830F90CF91DF910895BB
:100E8000DF93CF93CDB7DEB7EBE2F0E0808188232C
:100E9000DCF7ECE2F0E08081CF91DF910895DF9301
:100EA000CF9300D00F92CDB7DEB79B838A83198290
:100EB0000EC08981282F30E08A819B81FC01E20FDE
:100EC000F31F80810E94290789818F5F898389812F
:100ED000282F30E08A819B81FC01E20FF31F808183
:100EE000882339F70F900F900F90CF91DF910895DD
:100EF0000F931F93DF93CF9300D00F92CDB7DEB740
:100F00009B838A8319828981282F30E08A819B8183
:100F10008C01020F131F0E944007F80180830FC04D
:100F200089818F5F89838981282F30E08A819B8125
:100F30008C01020F131F0E944007F80180838981F2
:100F4000282F30E08A819B81FC01E20FF31F808112
:100F5000882F90E0F0E080369F0711F78981282FD5
:100F600030E08A819B81FC01E20FF31F10820F9019
:100F70000F900F90CF91DF911F910F910895DF9304
:100F8000CF93CDB7DEB727970FB6F894DEBF0FBE6D
:100F9000CDBF89836A834B838B81813009F06FC019
:100FA0008981282F30E03F832E838E819F8181307D
:100FB000910549F12E813F81223031052CF48E813B
:100FC0009F81009761F0CEC02E813F812230310594
:100FD00071F18E819F8183309105E9F1C3C0AAE34D
:100FE000B0E0EAE3F0E08081482F8A81282F30E0EA
:100FF00081E090E0022E02C0880F991F0A94E2F768
:10100000842B8C93AFC0A7E3B0E0E7E3F0E08081EE
:10101000482F8A81282F30E081E090E0022E02C024
:10102000880F991F0A94E2F7842B8C939BC0A4E34A
:10103000B0E0E4E3F0E08081482F8A81282F30E09F
:1010400081E090E0022E02C0880F991F0A94E2F717
:10105000842B8C9387C0A1E3B0E0E1E3F0E08081D2
:10106000482F8A81282F30E081E090E0022E02C0D4
:10107000880F991F0A94E2F7842B8C9373C089819F
:10108000282F30E03D832C838C819D818130910518
:1010900059F12C813D81223031052CF48C819D81C8
:1010A000009769F05FC02C813D812230310589F1C4
:1010B0008C819D818330910509F440C053C0AAE31F
:1010C000B0E0EAE3F0E08081482F8A81282F30E009
:1010D00081E090E0022E02C0880F991F0A94E2F787
:1010E000809584238C933EC0A7E3B0E0E7E3F0E073
:1010F0008081482F8A81282F30E081E090E0022E05
:1011000002C0880F991F0A94E2F7809584238C937C
:1011100029C0A4E3B0E0E4E3F0E08081482F8A81B5
:10112000282F30E081E090E0022E02C0880F991F46
:101130000A94E2F7809584238C9314C0A1E3B0E075
:10114000E1E3F0E08081482F8A81282F30E081E0C0
:1011500090E0022E02C0880F991F0A94E2F7809552
:1011600084238C9327960FB6F894DEBF0FBECDBFB5
:10117000CF91DF910895DF93CF93CDB7DEB7279757
:101180000FB6F894DEBF0FBECDBF89836A834B8351
:101190008B81813009F06FC08981282F30E03F8337
:1011A0002E838E819F818130910549F12E813F816F
:1011B000223031052CF48E819F81009761F0CEC0E2
:1011C0002E813F812230310571F18E819F818330E4
:1011D0009105E9F1C3C0ABE3B0E0EBE3F0E080815F
:1011E000482F8A81282F30E081E090E0022E02C053
:1011F000880F991F0A94E2F7842B8C93AFC0A8E361
:10120000B0E0E8E3F0E08081482F8A81282F30E0C9
:1012100081E090E0022E02C0880F991F0A94E2F745
:10122000842B8C939BC0A5E3B0E0E5E3F0E08081E4
:10123000482F8A81282F30E081E090E0022E02C002
:10124000880F991F0A94E2F7842B8C9387C0A2E33E
:10125000B0E0E2E3F0E08081482F8A81282F30E07F
:1012600081E090E0022E02C0880F991F0A94E2F7F5
:10127000842B8C9373C08981282F30E03D832C838D
:101280008C819D818130910559F12C813D812230E5
:1012900031052CF48C819D81009769F05FC02C8111
:1012A0003D812230310589F18C819D81833091050A
:1012B00009F440C053C0ABE3B0E0EBE3F0E0808161
:1012C000482F8A81282F30E081E090E0022E02C072
:1012D000880F991F0A94E2F7809584238C933EC06F
:1012E000A8E3B0E0E8E3F0E08081482F8A81282F6E
:1012F00030E081E090E0022E02C0880F991F0A942E
:10130000E2F7809584238C9329C0A5E3B0E0E5E360
:10131000F0E08081482F8A81282F30E081E090E042
:10132000022E02C0880F991F0A94E2F78095842349
:101330008C9314C0A2E3B0E0E2E3F0E08081482F98
:101340008A81282F30E081E090E0022E02C0880FD1
:10135000991F0A94E2F7809584238C9327960FB601
:10136000F894DEBF0FBECDBFCF91DF910895DF931C
:10137000CF9300D000D00F92CDB7DEB78A836B83B6
:101380008A81282F30E03D832C838C819D818130A0
:10139000910539F12C813D81223031052CF48C816D
:1013A0009D81009761F052C02C813D812230310532
:1013B00051F18C819D8183309105B9F147C0E9E3FA
:1013C000F0E08081482F8B81282F30E081E090E091
:1013D000022E02C0880F991F0A94E2F784238983A2
:1013E00035C0E6E3F0E08081482F8B81282F30E084
:1013F00081E090E0022E02C0880F991F0A94E2F764
:101400008423898323C0E3E3F0E08081482F8B812C
:10141000282F30E081E090E0022E02C0880F991F53
:101420000A94E2F78423898311C0E0E3F0E080812D
:10143000482F8B81282F30E081E090E0022E02C0FF
:10144000880F991F0A94E2F78423898389810F907A
:101450000F900F900F900F90CF91DF910895DF9331
:10146000CF9300D000D0CDB7DEB789836A8389815E
:10147000282F30E03C832B838B819C818130910528
:10148000D1F02B813C81223031052CF48B819C8161
:10149000009761F01EC02B813C812230310581F024
:1014A0008B819C818330910581F013C0EAE3F0E0E9
:1014B0008A8180830EC0E7E3F0E08A81808309C0DF
:1014C000E4E3F0E08A81808304C0E1E3F0E08A8114
:1014D00080830F900F900F900F90CF91DF91089520
:1014E000DF93CF9300D000D0CDB7DEB789836A8376
:1014F0008981282F30E03C832B838B819C81813034
:101500009105D1F02B813C81223031052CF48B8167
:101510009C81009761F01EC02B813C8122303105F7
:1015200081F08B819C818330910581F013C0EBE3C6
:10153000F0E08A8180830EC0E8E3F0E08A81808356
:1015400009C0E5E3F0E08A81808304C0E2E3F0E0D3
:101550008A8180830F900F900F900F90CF91DF9131
:101560000895DF93CF93CDB7DEB7E7E2F0E080E4F4
:101570008083E6E2F0E087E88083CF91DF910895F1
:10158000DF93CF930F92CDB7DEB7898389818770C0
:101590008983A7E2B0E0E7E2F0E08081982F987FAE
:1015A0008981892B8C93A6E2B0E0E6E2F0E08081AD
:1015B00080648C93E6E2F0E08081882F90E0807474
:1015C00090700097B9F7E4E2F0E0808191810F908C
:1015D000CF91DF910895DF93CF9300D0CDB7DEB7E1
:1015E00019824CC0EAE3F0E08981282F30E080E1E5
:1015F00090E002C0880F991F2A95E2F78083EBE301
:10160000F0E08981282F30E080E190E0022E02C0D6
:10161000880F991F0A94E2F7809580831A8228C068
:10162000E9E3F0E08081282F30E08A81882F90E084
:10163000A90102C0559547958A95E2F7CA018170C4
:101640009070009791F48A81882F90E0880F991FFD
:10165000880F991F982F8981890F8F5F0E94430BF4
:101660000F900F90CF91DF9108958A818F5F8A83C9
:101670008A818430A8F289818F5F8983898184304F
:1016800008F4B0CFADCFDF93CF9300D000D00F924E
:10169000CDB7DEB789838981282F30E03C832B8347
:1016A0008B819C818830910509F470C02B813C812D
:1016B000293031055CF58B819C818430910509F4DA
:1016C00059C02B813C81253031059CF48B819C8154
:1016D0008230910509F448C02B813C8123303105CB
:1016E0000CF045C08B819C818130910509F439C093
:1016F00067C02B813C812630310509F441C08B81C4
:101700009C81873091050CF03EC037C02B813C8115
:101710002C30310509F446C08B819C818D309105B8
:101720005CF42B813C812A303105B1F18B819C81A5
:101730008B309105A4F52DC02B813C812E303105D5
:10174000B9F18B819C818E3091057CF12B813C819C
:101750002F30310579F18B819C818031910569F1C0
:101760002FC097E09A832DC028E02A832AC039E051
:101770003A8327C08FE28A8324C094E09A8321C0F1
:1017800025E02A831EC036E03A831BC08AE28A83A2
:1017900018C091E09A8315C022E02A8312C033E07A
:1017A0003A830FC08DE28A830CC093E69A8309C006
:1017B0001A8207C02DE32A8304C03BE23A8301C0AA
:1017C00002C08A818D838D810F900F900F900F90B2
:1017D0000F90CF91DF910895DF93CF93CDB7DEB710
:1017E000E8970FB6F894DEBF0FBECDBFE7E3F0E099
:1017F00080816FEF0E942F0AE1E3F0E080EE8083AA
:1018000080E090E0A8E4B2E48DAB9EABAFABB8AFA4
:101810006DA97EA98FA998AD20E030E04AE753E496
:101820000E941702DC01CB0189AB9AABABABBCAB1E
:1018300069A97AA98BA99CA920E030E040E85FE380
:101840000E941D0488232CF481E090E098AB8FA7C0
:101850003FC069A97AA98BA99CA920E03FEF4FE777
:1018600057E40E94BD0318164CF56DA97EA98FA9F7
:1018700098AD20E030E040E251E40E941702DC0124
:10188000CB01BC01CD010E944100DC01CB0198AB32
:101890008FA70FC089E190E09EA78DA78DA59EA57B
:1018A0000197F1F79EA78DA78FA598A9019798ABEF
:1018B0008FA78FA598A9009769F714C069A97AA97D
:1018C0008BA99CA90E944100DC01CB0198AB8FA79A
:1018D0008FA598A99CA78BA78BA59CA50197F1F72D
:1018E0009CA78BA788E30E94DA0D80E090E0A0E837
:1018F000BFE38FA398A7A9A7BAA76FA178A589A5C9
:101900009AA520E030E04AE753E40E941702DC0188
:10191000CB018BA39CA3ADA3BEA36BA17CA18DA186
:101920009EA120E030E040E85FE30E941D04882390
:101930002CF481E090E09AA389A33FC06BA17CA125
:101940008DA19EA120E03FEF4FE757E40E94BD0329
:1019500018164CF56FA178A589A59AA520E030E06E
:1019600040E251E40E941702DC01CB01BC01CD0131
:101970000E944100DC01CB019AA389A30FC089E139
:1019800090E098A38F8F8F8D98A10197F1F798A37E
:101990008F8F89A19AA101979AA389A389A19AA15E
:1019A000009769F714C06BA17CA18DA19EA10E9434
:1019B0004100DC01CB019AA389A389A19AA19E8F42
:1019C0008D8F8D8D9E8D0197F1F79E8F8D8F8CE081
:1019D0000E94DA0D80E090E0A0E8BFE3898F9A8F43
:1019E000AB8FBC8F698D7A8D8B8D9C8D20E030E024
:1019F0004AE753E40E941702DC01CB018D8B9E8BDA
:101A0000AF8BB88F6D897E898F89988D20E030E00B
:101A100040E85FE30E941D0488232CF481E090E0FD
:101A20009C8B8B8B3FC06D897E898F89988D20E040
:101A30003FEF4FE757E40E94BD0318164CF5698D40
:101A40007A8D8B8D9C8D20E030E040E251E40E9445
:101A50001702DC01CB01BC01CD010E944100DC0179
:101A6000CB019C8B8B8B0FC089E190E09A8B898B8B
:101A700089899A890197F1F79A8B898B8B899C893F
:101A800001979C8B8B8B8B899C89009769F714C07D
:101A90006D897E898F89988D0E944100DC01CB0180
:101AA0009C8B8B8B8B899C89988B8F878F85988952
:101AB0000197F1F7988B8F8781E00E94DA0D80E023
:101AC00090E0A0E0B0E48B879C87AD87BE876B85F4
:101AD0007C858D859E8520E030E04AE753E40E94B6
:101AE0001702DC01CB018F839887A987BA876F81A2
:101AF000788589859A8520E030E040E85FE30E94A0
:101B00001D0488232CF481E090E09E838D833FC0E8
:101B10006F81788589859A8520E03FEF4FE757E40C
:101B20000E94BD0318164CF56B857C858D859E85BE
:101B300020E030E040E251E40E941702DC01CB01DA
:101B4000BC01CD010E944100DC01CB019E838D834D
:101B50000FC089E190E09C838B838B819C810197EE
:101B6000F1F79C838B838D819E8101979E838D836A
:101B70008D819E81009769F714C06F817885898572
:101B80009A850E944100DC01CB019E838D838D816B
:101B90009E819A83898389819A810197F1F79A833B
:101BA0008983E8960FB6F894DEBF0FBECDBFCF9104
:101BB000DF910895DF93CF93CDB7DEB7AB970FB624
:101BC000F894DEBF0FBECDBF8BA7A2E3B0E0E2E387
:101BD000F0E080818F7D8C93A2E3B0E0E2E3F0E05F
:101BE00080818F7B8C9380E090E0A0E8BFE38FA39F
:101BF00098A7A9A7BAA76FA178A589A59AA520E05B
:101C000030E04AE753E40E941702DC01CB018BA3CA
:101C10009CA3ADA3BEA36BA17CA18DA19EA120E03E
:101C200030E040E85FE30E941D0488232CF481E04B
:101C300090E09AA389A33FC06BA17CA18DA19EA136
:101C400020E03FEF4FE757E40E94BD0318164CF524
:101C50006FA178A589A59AA520E030E040E251E483
:101C60000E941702DC01CB01BC01CD010E944100A2
:101C7000DC01CB019AA389A30FC089E190E098A36E
:101C80008F8F8F8D98A10197F1F798A38F8F89A1DE
:101C90009AA101979AA389A389A19AA1009769F7AC
:101CA00014C06BA17CA18DA19EA10E944100DC010A
:101CB000CB019AA389A389A19AA19E8F8D8F8D8D27
:101CC0009E8D0197F1F79E8F8D8FA2E3B0E0E2E346
:101CD000F0E0808180688C9380E090E0A0E8BFE332
:101CE000898F9A8FAB8FBC8F698D7A8D8B8D9C8DF0
:101CF00020E030E04AE753E40E941702DC01CB0108
:101D00008D8B9E8BAF8BB88F6D897E898F89988DD7
:101D100020E030E040E85FE30E941D0488232CF4BB
:101D200081E090E09C8B8B8B3FC06D897E898F8991
:101D3000988D20E03FEF4FE757E40E94BD0318164F
:101D40004CF5698D7A8D8B8D9C8D20E030E040E2E2
:101D500051E40E941702DC01CB01BC01CD010E94BD
:101D60004100DC01CB019C8B8B8B0FC089E190E0A3
:101D70009A8B898B89899A890197F1F79A8B898B3C
:101D80008B899C8901979C8B8B8B8B899C89009775
:101D900069F714C06D897E898F89988D0E944100F2
:101DA000DC01CB019C8B8B8B8B899C89988B8F87DB
:101DB0008F8598890197F1F7988B8F87E8E3F0E09A
:101DC0008BA5808380E090E0A0E8BFE38B879C87B1
:101DD000AD87BE876B857C858D859E8520E030E054
:101DE0004AE753E40E941702DC01CB018F839887F6
:101DF000A987BA876F81788589859A8520E030E048
:101E000040E85FE30E941D0488232CF481E090E009
:101E10009E838D833FC06F81788589859A8520E078
:101E20003FEF4FE757E40E94BD0318164CF56B8552
:101E30007C858D859E8520E030E040E251E40E9463
:101E40001702DC01CB01BC01CD010E944100DC0185
:101E5000CB019E838D830FC089E190E09C838B83AF
:101E60008B819C810197F1F79C838B838D819E816F
:101E700001979E838D838D819E81009769F714C0A1
:101E80006F81788589859A850E944100DC01CB01AC
:101E90009E838D838D819E819A83898389819A8196
:101EA0000197F1F79A838983A2E3B0E0E2E3F0E0DF
:101EB00080818F778C93AB960FB6F894DEBF0FBE00
:101EC000CDBFCF91DF910895DF93CF93CDB7DEB72C
:101ED000AB970FB6F894DEBF0FBECDBF8BA7A2E3C2
:101EE000B0E0E2E3F0E0808180628C93A2E3B0E0B6
:101EF000E2E3F0E080818F7B8C9380E090E0A0E8CB
:101F0000BFE38FA398A7A9A7BAA76FA178A589A5B2
:101F10009AA520E030E04AE753E40E941702DC0172
:101F2000CB018BA39CA3ADA3BEA36BA17CA18DA170
:101F30009EA120E030E040E85FE30E941D0488237A
:101F40002CF481E090E09AA389A33FC06BA17CA10F
:101F50008DA19EA120E03FEF4FE757E40E94BD0313
:101F600018164CF56FA178A589A59AA520E030E058
:101F700040E251E40E941702DC01CB01BC01CD011B
:101F80000E944100DC01CB019AA389A30FC089E123
:101F900090E098A38F8F8F8D98A10197F1F798A368
:101FA0008F8F89A19AA101979AA389A389A19AA148
:101FB000009769F714C06BA17CA18DA19EA10E941E
:101FC0004100DC01CB019AA389A389A19AA19E8F2C
:101FD0008D8F8D8D9E8D0197F1F79E8F8D8FA2E352
:101FE000B0E0E2E3F0E0808180688C9380E090E0F4
:101FF000A0E8BFE3898F9A8FAB8FBC8F698D7A8DF4
:102000008B8D9C8D20E030E04AE753E40E9417025C
:10201000DC01CB018D8B9E8BAF8BB88F6D897E8958
:102020008F89988D20E030E040E85FE30E941D0436
:1020300088232CF481E090E09C8B8B8B3FC06D89D2
:102040007E898F89988D20E03FEF4FE757E40E940B
:10205000BD0318164CF5698D7A8D8B8D9C8D20E013
:1020600030E040E251E40E941702DC01CB01BC01E8
:10207000CD010E944100DC01CB019C8B8B8B0FC0FA
:1020800089E190E09A8B898B89899A890197F1F788
:102090009A8B898B8B899C8901979C8B8B8B8B89E5
:1020A0009C89009769F714C06D897E898F89988D06
:1020B0000E944100DC01CB019C8B8B8B8B899C891E
:1020C000988B8F878F8598890197F1F7988B8F87E9
:1020D000E8E3F0E08BA5808380E090E0A0E8BFE338
:1020E0008B879C87AD87BE876B857C858D859E851C
:1020F00020E030E04AE753E40E941702DC01CB0104
:102100008F839887A987BA876F81788589859A8513
:1021100020E030E040E85FE30E941D0488232CF4B7
:1021200081E090E09E838D833FC06F8178858985B3
:102130009A8520E03FEF4FE757E40E94BD03181651
:102140004CF56B857C858D859E8520E030E040E2F6
:1021500051E40E941702DC01CB01BC01CD010E94B9
:102160004100DC01CB019E838D830FC089E190E0AB
:102170009C838B838B819C810197F1F79C838B835C
:102180008D819E8101979E838D838D819E81009795
:1021900069F714C06F81788589859A850E9441000E
:1021A000DC01CB019E838D838D819E819A838983FF
:1021B00089819A810197F1F79A838983A2E3B0E03C
:1021C000E2E3F0E080818F778C93AB960FB6F894C2
:1021D000DEBF0FBECDBFCF91DF910895DF93CF93C8
:1021E00000D00F92CDB7DEB79B838A8319820EC0D1
:1021F0008981282F30E08A819B81FC01E20FF31F47
:1022000080810E94640F89818F5F89838981282F53
:1022100030E08A819B81FC01E20FF31F80818823DB
:1022200039F70F900F900F90CF91DF910895DF93C2
:10223000CF9300D000D00F92CDB7DEB78A836B83E7
:102240008A81282F30E03D832C838C819D818130D1
:102250009105C1F02C813D81223031052CF48C8117
:102260009D81009761F019C02C813D81223031059C
:1022700069F08C819D818330910561F00EC08B8166
:1022800089830BC08B81805C898307C08B81805FD1
:10229000898303C08B81805B8983898180680E94E8
:1022A000DA0D0F900F900F900F900F90CF91DF915C
:1022B0000895DF93CF93CDB7DEB781E00E94DA0DAA
:1022C000CF91DF910895DF93CF9300D000D0CDB7A9
:1022D000DEB789836A835C834B8389816A810E942C
:1022E00017118B819C810E94EE100F900F900F9020
:1022F0000F90CF91DF910895DF93CF93CDB7DEB7E5
:102300006F970FB6F894DEBF0FBECDBF8F8F8F8D46
:10231000882F90E09E012F5F3F4FB9014AE050E0C7
:102320000E946A12CE0101960E94EE106F960FB6BF
:10233000F894DEBF0FBECDBFCF91DF910895DF933C
:10234000CF93CDB7DEB729970FB6F894DEBF0FBE97
:10235000CDBF0E94B10A0E940F070E94EC0B81E0E2
:102360000E94C00A9987888788859985CC01A0E05A
:10237000B0E0BC01CD010E94A104DC01CB01BC0195
:10238000CD0127ED33EA40E050E40E941103DC0167
:10239000CB01BC01CD010E944100DC01CB018F8348
:1023A00080E060E00E94171182E690E00E94EE104B
:1023B0008F810E947C118AE690E00E94EE108F814E
:1023C0008F3138F08F81833320F088E40E94290711
:1023D0000AC08F818F3120F086E40E94290703C054
:1023E00088E50E94290780E00E94C00A9E838D83B1
:1023F0002D813E8188E893E1AC01249FC001259F97
:10240000900D349F900D1124892F99279C838B83E5
:102410008B819C81CC01A0E0B0E0BC01CD010E9489
:10242000A104DC01CB01BC01CD0123E333E343E78D
:1024300050E40E941702DC01CB01BC01CD010E94D7
:102440004100DC01CB019A83898389819A8151E023
:102450008039950720F48CE40E94290780CF88E515
:102460000E9429077CCF2F923F924F925F926F92EA
:102470007F928F929F92AF92BF92CF92DF92EF9214
:10248000FF920F931F93CF93DF93CDB7DEB7CA1B95
:10249000DB0B0FB6F894DEBF0FBECDBF09942A88C0
:1024A000398848885F846E847D848C849B84AA8468
:1024B000B984C884DF80EE80FD800C811B81AA81F5
:1024C000B981CE0FD11D0FB6F894DEBF0FBECDBFC0
:1024D000ED010895FB019F01E8944230C4F04532BC
:1024E000B4F44A3029F497FB1EF4909581959F4FE0
:1024F000642F77270E949B12805D8A330CF0895DE0
:102500008193CB010097A1F716F45DE251931082FD
:10251000C9010C948B12DC01FC01672F71917723A8
:10252000E1F7329704C07C916D9370836291AE178E
:10253000BF07C8F30895AA1BBB1B51E107C0AA1F20
:10254000BB1FA617B70710F0A61BB70B881F991F54
:102550005A95A9F780959095BC01CD010895F894FE
:02256000FFCFAB
:10256200230054656D703A20200020432020202053
:10257200200000000000000000000001020203032E
:102582000303040404040404040405050505050505
:1025920005050505050505050505060606060606E3
:1025A20006060606060606060606060606060606C9
:1025B20006060606060606060606070707070707B3
:1025C2000707070707070707070707070707070799
:1025D2000707070707070707070707070707070789
:1025E2000707070707070707070707070707070779
:1025F2000707070707070707070708080808080863
:102602000808080808080808080808080808080848
:102612000808080808080808080808080808080838
:102622000808080808080808080808080808080828
:102632000808080808080808080808080808080818
:102642000808080808080808080808080808080808
:1026520008080808080808080808080808080808F8
:1026620008080808080808080808080808080808E8
:0A267200080808080808080808080E
:00000001FF
