:100000000C942A000C9447000C9447000C94470071
:100010000C9447000C9447000C9447000C94A305E3
:100020000C9447000C94D6050C9447000C944700A0
:100030000C9447000C9447000C9447000C94470024
:100040000C9447000C9447000C9447000C94470014
:100050000C94470011241FBECFE5D8E0DEBFCDBF12
:1000600011E0A0E6B0E0E2E8F7E302C005900D92EF
:10007000A035B107D9F711E0A0E5B1E001C01D92AC
:10008000A636B107E1F70E94281A0C94BF1B0C9406
:100090000000EF92FF920F931F937B018C0120E0F1
:1000A00030E040E05FE40E94490388238CF0C801FF
:1000B000B70120E030E040E05FE40E94C1010E940F
:1000C000A9039B01AC01205030404040504806C07D
:1000D000C801B7010E94A9039B01AC01B901CA0183
:1000E0001F910F91FF90EF900895A0E0B0E0EBE733
:1000F000F0E00C94431BDC012B01FA019C9192303F
:1001000008F439C1EB018881823008F433C194309E
:1001100069F4843009F02FC111969C91119789815F
:10012000981709F428C1AAE3B1E025C1843009F485
:1001300021C18230A9F4923009F01DC19A01AD01AC
:1001400088E0EA010990AE01E90109929E0181501F
:10015000C1F7E201898111969C918923818308C1AD
:10016000923009F407C112962D903C901397EB0141
:100170008A819B811496AD90BD90CD90DC901797AD
:10018000EC80FD800E811F819101281B390BB90184
:1001900037FF04C066277727621B730B6032710537
:1001A0000CF061C0121613066CF537014801062EDB
:1001B00004C096948794779467940A94D2F721E0C8
:1001C00030E040E050E004C0220F331F441F551FB1
:1001D0006A95D2F721503040404050402E213F21B7
:1001E00040235123211531054105510521F021E01E
:1001F00030E040E050E079018A01E628F72808293C
:1002000019293CC0232BD1F1260E371E350146019A
:10021000062E04C096948794779467940A94D2F734
:1002200021E030E040E050E004C0220F331F441FC3
:10023000551F6A95D2F721503040404050402A2146
:100240003B214C215D21211531054105510521F04E
:1002500021E030E040E050E059016A01A628B728CB
:10026000C828D9280BC0821593052CF01C01AA249C
:10027000BB24650103C0EE24FF24870111969C91E5
:10028000D20111968C91981709F445C0992339F041
:10029000A80197012A193B094C095D0906C0A6016E
:1002A00095012E193F09400B510B57FD08C01182D3
:1002B0003382228224833583468357831DC081E0A5
:1002C00081833382228288279927DC01821B930B4A
:1002D000A40BB50B84839583A683B7830DC0220F2F
:1002E000331F441F551F24833583468357838281E0
:1002F000938101979383828324813581468157813D
:10030000DA01C9010197A109B1098F5F9F4FAF4F72
:10031000BF4328F30BC0918333822282EA0CFB1C7B
:100320000C1D1D1DE482F5820683178383E0808304
:10033000248135814681578157FF1AC0C901AA27F8
:1003400097FDA095BA2F81709070A070B0705695EF
:10035000479537952795822B932BA42BB52B848318
:100360009583A683B7838281938101969383828349
:10037000DF0101C0D201CD01CDB7DEB7E2E10C94BF
:100380005F1BA0E2B0E0E7ECF1E00C944F1B698347
:100390007A838B839C832D833E834F835887E9E048
:1003A000EE2EF12CEC0EFD1ECE010196B7010E943F
:1003B000D2048E010F5E1F4FCE010596B8010E9438
:1003C000D2048A8991E089278A8BC701B801AE01DE
:1003D000475E5F4F0E9475000E94FD03A096E6E015
:1003E0000C946B1BA0E2B0E0E8EFF1E00C944F1B23
:1003F00069837A838B839C832D833E834F835887C5
:10040000F9E0EF2EF12CEC0EFD1ECE010196B701A6
:100410000E94D2048E010F5E1F4FCE010596B801D7
:100420000E94D204C701B801AE01475E5F4F0E942F
:1004300075000E94FD03A096E6E00C946B1BA0E201
:10044000B0E0E5E2F2E00C94431B69837A838B838E
:100450009C832D833E834F835887CE010196BE0136
:10046000675F7F4F0E94D204CE010596BE016F5E8A
:100470007F4F0E94D2049985923088F0898982301A
:10048000C8F0943019F4823051F404C0843029F457
:10049000923081F48AE391E0C6C0923049F420E0C2
:1004A0009A858A89981321E02A87CE010996BBC0D4
:1004B000823049F420E09A858A89981321E02A8BBA
:1004C000CE014196B0C02D843E844F8458886D88FB
:1004D0007E888F88988CEE24FF248701AA24BB2471
:1004E000650140E050E060E070E0E0E0F0E0C10174
:1004F00081709070892BE9F0E60CF71C081D191D1E
:100500009A01AB012A0D3B1D4C1D5D1D80E090E062
:10051000A0E0B0E0E614F7040805190520F481E036
:1005200090E0A0E0B0E0BA01A901480F591F6A1F8E
:100530007B1FAA0CBB1CCC1CDD1C97FE08C081E0F5
:1005400090E0A0E0B0E0A82AB92ACA2ADB2A3196B6
:10055000E032F10549F0660C771C881C991C569412
:10056000479437942794C3CFFA85EA892B893C892D
:100570008B859C85280F391F2E5F3F4F17C0CA01FE
:1005800081709070892B61F016950795F794E79428
:1005900080E090E0A0E0B0E8E82AF92A0A2B1B2BC3
:1005A00076956795579547952F5F3F4F77FDE7CF36
:1005B0000CC0440F551F661F771F17FD4160EE0CDE
:1005C000FF1C001F111F21503040403090E05907A0
:1005D00090E0690790E4790760F32B8F3C8FDB0193
:1005E000CA018F779070A070B07080349105A1051A
:1005F000B10561F447FD0AC0E114F10401051105DC
:1006000029F0405C5F4F6F4F7F4F40781A8EFE1786
:1006100011F081E08A8F4D8F5E8F6F8F78A383E01A
:10062000898FCE0149960E94FD03A096E2E10C94C9
:100630005F1BA8E1B0E0EFE1F3E00C944F1B69838E
:100640007A838B839C832D833E834F83588789E0F5
:10065000E82EF12CEC0EFD1ECE010196B7010E9492
:10066000D2048E010F5E1F4FCE010596B8010E9485
:10067000D2048985823040F08989823028F0C70110
:10068000B8010E944A0501C08FEF6896E6E00C941D
:100690006B1BA8E1B0E0EFE4F3E00C944F1B69831F
:1006A0007A838B839C832D833E834F83588789E095
:1006B000E82EF12CEC0EFD1ECE010196B7010E9432
:1006C000D2048E010F5E1F4FCE010596B8010E9425
:1006D000D2048985823040F08989823028F0C701B0
:1006E000B8010E944A0501C08FEF6896E6E00C94BD
:1006F0006B1BA8E1B0E0EFE7F3E00C944F1B6983BC
:100700007A838B839C832D833E834F83588789E034
:10071000E82EF12CEC0EFD1ECE010196B7010E94D1
:10072000D2048E010F5E1F4FCE010596B8010E94C4
:10073000D2048985823040F08989823028F0C7014F
:10074000B8010E944A0501C081E06896E6E00C9479
:100750006B1BACE0B0E0EFEAF3E00C94531B698351
:100760007A838B839C83CE010196BE016B5F7F4FA2
:100770000E94D2048D81823061F1823050F1843048
:1007800021F48E81882351F12EC02F81388537FDC9
:1007900020C06E812F3131051CF06623F9F023C093
:1007A0008EE190E0821B930B29853A854B855C8511
:1007B00004C056954795379527958A95D2F76623B5
:1007C000B1F050954095309521953F4F4F4F5F4F79
:1007D0000EC020E030E040E050E009C02FEF3FEFD6
:1007E0004FEF5FE704C020E030E040E050E8B9019F
:1007F000CA012C96E2E00C946F1BDF92EF92FF92FD
:100800000F931F93FC01E480F58006811781D1804E
:100810008081823048F480E090E0A0E1B0E0E82AF6
:10082000F92A0A2B1B2BA5C0843009F49FC0823003
:1008300021F4EE24FF24870105C0E114F104010531
:10084000110519F4E0E0F0E096C0628173819FEF3A
:10085000623879070CF05BC022E83FEF261B370BAC
:100860002A3131052CF020E030E040E050E02AC091
:10087000B801A701022E04C0769567955795479554
:100880000A94D2F781E090E0A0E0B0E004C0880FC5
:10089000991FAA1FBB1F2A95D2F70197A109B10979
:1008A0008E219F21A023B1230097A105B10521F03E
:1008B00081E090E0A0E0B0E09A01AB01282B392B59
:1008C0004A2B5B2BDA01C9018F779070A070B07052
:1008D00080349105A105B10539F427FF09C0205CDA
:1008E0003F4F4F4F5F4F04C0215C3F4F4F4F5F4F13
:1008F000E0E0F0E02030A0E03A07A0E04A07A0E402
:100900005A0710F0E1E0F0E079018A0127C0603871
:10091000710564F5FB01E158FF4FD801C7018F77DE
:100920009070A070B07080349105A105B10539F4C4
:10093000E7FE0DC080E490E0A0E0B0E004C08FE3EB
:1009400090E0A0E0B0E0E80EF91E0A1F1B1F17FFA1
:1009500005C016950795F794E794319687E01695AC
:100960000795F794E7948A95D1F705C0EE24FF2404
:100970008701EFEFF0E06E2F679566276795902F60
:100980009F77D794DD24D7948E2F8695492F462BB9
:10099000582F5D29B701CA011F910F91FF90EF9069
:1009A000DF900895FC01DB01408151812281622F9B
:1009B0006F7770E0221F2227221F9381892F880FD3
:1009C000822B282F30E0991F9927991F11969C930D
:1009D000119721153105A9F54115510561057105DD
:1009E00011F482E037C082E89FEF13969C938E93B8
:1009F00012979A01AB0167E0220F331F441F551F66
:100A00006A95D1F783E08C930DC0220F331F441FEA
:100A1000551F12968D919C911397019713969C9355
:100A20008E931297203080E0380780E0480780E4FA
:100A3000580758F314962D933D934D935C93179755
:100A400008952F3F310579F4411551056105710570
:100A500019F484E08C93089564FF03C081E08C93C3
:100A600012C01C9210C02F57304013963C932E9307
:100A7000129783E08C9387E0440F551F661F771F02
:100A80008A95D1F7706414964D935D936D937C9322
:100A9000179708951F93DC01FB019C91923008F495
:100AA00047C08081823008F443C0943051F41196DD
:100AB0001C91843099F58181682F70E0611B710968
:100AC0003FC0843021F0923031F48230B9F181811D
:100AD000882389F12DC011961C9111978230F1F075
:100AE00081811817D9F412962D913C911397828128
:100AF00093818217930794F028173907BCF0149656
:100B00008D919D910D90BC91A02D248135814681C0
:100B10005781281739074A075B0718F4112341F05A
:100B20000AC082179307A407B50740F4112319F0F0
:100B300061E070E005C06FEF7FEF02C060E070E041
:100B4000CB011F9108951F920F920FB60F9211249F
:100B50002F933F934F935F936F937F938F939F93C5
:100B6000AF93BF93EF93FF93DF93CF93CDB7DEB7F0
:100B70008091500190915101009729F0E09150012E
:100B8000F09151010995CF91DF91FF91EF91BF91C4
:100B9000AF919F918F917F916F915F914F913F9115
:100BA0002F910F900FBE0F901F9018951F920F92CC
:100BB0000FB60F9211242F933F934F935F936F9330
:100BC0007F938F939F93AF93BF93EF93FF93DF93A5
:100BD000CF93CDB7DEB7809150019091510100972E
:100BE00029F0E0915001F09151010995CF91DF91E9
:100BF000FF91EF91BF91AF919F918F917F916F91F5
:100C00005F914F913F912F910F900FBE0F901F90CA
:100C10001895DF93CF9300D0CDB7DEB79A83898341
:100C2000ACE4B0E0E981FA818281938111969C93D2
:100C30008E93AAE4B0E0E981FA81848195811196CE
:100C40009C938E93EFE4F0E08CE08083AEE4B0E020
:100C5000E981FA8180818C93E981FA8181818823FD
:100C600091F4AFE4B0E0EFE4F0E09081E981FA8143
:100C70008181892B8C93A9E5B0E0E9E5F0E08081E2
:100C800084608C9313C0E981FA818181843071F48E
:100C9000AEE4B0E0EEE4F0E0808188608C93A9E5FA
:100CA000B0E0E9E5F0E0808180618C930F900F90D7
:100CB000CF91DF910895DF93CF93CDB7DEB7EEE408
:100CC000F0E01082ECE4F0E011821082EAE4F0E05F
:100CD00011821082CF91DF910895DF93CF9300D0DE
:100CE000CDB7DEB79A83898389819A819093510128
:100CF000809350010F900F90CF91DF910895DF9373
:100D0000CF9300D000D00F92CDB7DEB789836A832E
:100D10004B838981843008F0D5C08A81883008F0FF
:100D2000D1C08981282F30E03D832C838C819D8127
:100D30008130910509F443C02C813D812230310579
:100D40002CF48C819D81009771F0BCC02C813D8179
:100D50002230310509F45FC08C819D81833091057B
:100D600009F485C0AFC08B818823A9F4AAE3B0E061
:100D7000EAE3F0E08081482F8A81282F30E081E08B
:100D800090E0022E02C0880F991F0A94E2F7809526
:100D900084238C9397C0AAE3B0E0EAE3F0E080817B
:100DA000482F8A81282F30E081E090E0022E02C097
:100DB000880F991F0A94E2F7842B8C9383C08B8150
:100DC0008823A9F4A7E3B0E0E7E3F0E08081482FAF
:100DD0008A81282F30E081E090E0022E02C0880F47
:100DE000991F0A94E2F7809584238C936BC0A7E344
:100DF000B0E0E7E3F0E08081482F8A81282F30E0DF
:100E000081E090E0022E02C0880F991F0A94E2F759
:100E1000842B8C9357C08B818823A9F4A4E3B0E082
:100E2000E4E3F0E08081482F8A81282F30E081E0E0
:100E300090E0022E02C0880F991F0A94E2F7809575
:100E400084238C933FC0A4E3B0E0E4E3F0E080812E
:100E5000482F8A81282F30E081E090E0022E02C0E6
:100E6000880F991F0A94E2F7842B8C932BC08B81F7
:100E70008823A9F4A1E3B0E0E1E3F0E08081482F0A
:100E80008A81282F30E081E090E0022E02C0880F96
:100E9000991F0A94E2F7809584238C9313C0A1E3F1
:100EA000B0E0E1E3F0E08081482F8A81282F30E034
:100EB00081E090E0022E02C0880F991F0A94E2F7A9
:100EC000842B8C930F900F900F900F900F90CF91D9
:100ED000DF910895DF93CF9300D000D00F92CDB76C
:100EE000DEB789836A834B838981843008F0D5C05B
:100EF0008A81883008F0D1C08981282F30E03D8375
:100F00002C838C819D818130910509F443C02C8113
:100F10003D81223031052CF48C819D81009771F048
:100F2000BCC02C813D812230310509F45FC08C8129
:100F30009D818330910509F485C0AFC08B818130DC
:100F4000A1F4ABE3B0E0EBE3F0E08081482F8A81CD
:100F5000282F30E081E090E0022E02C0880F991F18
:100F60000A94E2F7842B8C9398C0ABE3B0E0EBE3F8
:100F7000F0E08081482F8A81282F30E081E090E0E6
:100F8000022E02C0880F991F0A94E2F780958423ED
:100F90008C9383C08B818130A1F4A8E3B0E0E8E3B7
:100FA000F0E08081482F8A81282F30E081E090E0B6
:100FB000022E02C0880F991F0A94E2F7842B8C93AB
:100FC0006CC0A8E3B0E0E8E3F0E08081482F8A81BC
:100FD000282F30E081E090E0022E02C0880F991F98
:100FE0000A94E2F7809584238C9357C08B818130DB
:100FF000A1F4A5E3B0E0E5E3F0E08081482F8A8129
:10100000282F30E081E090E0022E02C0880F991F67
:101010000A94E2F7842B8C9340C0A5E3B0E0E5E3AB
:10102000F0E08081482F8A81282F30E081E090E035
:10103000022E02C0880F991F0A94E2F7809584233C
:101040008C932BC08B818130A1F4A2E3B0E0E2E36A
:10105000F0E08081482F8A81282F30E081E090E005
:10106000022E02C0880F991F0A94E2F7842B8C93FA
:1010700014C0A2E3B0E0E2E3F0E08081482F8A816F
:10108000282F30E081E090E0022E02C0880F991FE7
:101090000A94E2F7809584238C930F900F900F9021
:1010A0000F900F90CF91DF910895DF93CF9300D0F1
:1010B00000D00F92CDB7DEB789836A8389818430EF
:1010C00018F48A81883010F01D8282C08981282F0F
:1010D00030E03C832B834B815C814130510579F1B9
:1010E0008B819C818230910534F42B813C812115C8
:1010F000310569F06CC04B815C8142305105B9F11A
:101100008B819C818330910509F449C060C0E9E37B
:10111000F0E08081282F30E08A81882F90E0A901BB
:1011200002C0559547958A95E2F7CA018170907083
:10113000882319F051E05D834BC01D8249C0E6E36E
:10114000F0E08081282F30E08A81882F90E0A9018B
:1011500002C0559547958A95E2F7CA018170907053
:10116000882319F051E05D8333C01D8231C0E3E371
:10117000F0E08081282F30E08A81882F90E0A9015B
:1011800002C0559547958A95E2F7CA018170907023
:10119000882319F051E05D831BC01D8219C0E0E374
:1011A000F0E08081282F30E08A81882F90E0A9012B
:1011B00002C0559547958A95E2F7CA0181709070F3
:1011C000882319F051E05D8303C01D8201C01D8298
:1011D0008D810F900F900F900F900F90CF91DF9116
:1011E0000895DF93CF9300D000D0CDB7DEB78983C9
:1011F0006A838981843090F58981282F30E03C838F
:101200002B838B819C8181309105D1F02B813C8196
:10121000223031052CF48B819C81009761F01EC037
:101220002B813C812230310581F08B819C81833080
:10123000910581F013C0EAE3F0E08A8180830EC05B
:10124000E7E3F0E08A81808309C0E4E3F0E08A818B
:10125000808304C0E1E3F0E08A8180830F900F90E7
:101260000F900F90CF91DF910895DF93CF9300D02F
:1012700000D0CDB7DEB789836A838981843090F549
:101280008981282F30E03C832B838B819C818130A6
:101290009105D1F02B813C81223031052CF48B81DA
:1012A0009C81009761F01EC02B813C81223031056A
:1012B00081F08B819C818330910581F013C0EBE339
:1012C000F0E08A8180830EC0E8E3F0E08A818083C9
:1012D00009C0E5E3F0E08A81808304C0E2E3F0E046
:1012E0008A8180830F900F900F900F90CF91DF91A4
:1012F0000895DF93CF9300D000D0CDB7DEB78983B8
:101300008981843098F58981282F30E03C832B83B4
:101310008B819C8181309105D1F02B813C812230E1
:1013200031052CF48B819C81009761F01FC02B81CB
:101330003C812230310581F08B819C818330910585
:1013400081F014C0EBE3F0E090819A8310C0E8E3F1
:10135000F0E020812A830BC0E5E3F0E030813A839E
:1013600006C0E2E3F0E080818A8301C01A828A81AC
:101370000F900F900F900F90CF91DF910895DF9312
:10138000CF9300D000D0CDB7DEB79C838B831A8279
:101390001982EBE2F0E082E08083EAE2F0E088E1AB
:1013A0008083E0E4F0E080E88083A0E4B0E0E0E463
:1013B000F0E08081282F2F7CEB81FC818181882FB8
:1013C00090E082959295907F9827807F9827822B36
:1013D0008C93A0E4B0E0E0E4F0E08081282F277F48
:1013E000EB81FC818281882F90E0880F991F880F04
:1013F000991F880F991F822B8C93A0E4B0E0E0E442
:10140000F0E08081282F297FEB81FC818081882F6B
:1014100090E0880F991F822B8C93AAE2B0E0EAE259
:10142000F0E08081982F9B7FEB81FC81808184702C
:10143000892B8C93EB81FC8183819481A581B6817A
:10144000880F991FAA1FBB1F880F991FAA1FBB1FB8
:10145000880F991FAA1FBB1F9C01AD0180E092E17C
:10146000AAE7B0E0BC01CD010E94211BDA01C9014D
:1014700001979A838983E0E4F0E089819A81892F3A
:1014800099278083E9E2F0E0898180830F900F90B3
:101490000F900F90CF91DF910895DF93CF930F922C
:1014A000CDB7DEB78983EBE2F0E08081882F90E052
:1014B000807290700097B9F3ECE2F0E0898180834C
:1014C0000F90CF91DF910895DF93CF93CDB7DEB723
:1014D000EBE2F0E080818823DCF7ECE2F0E0808151
:1014E000CF91DF910895DF93CF9300D00F92CDB7C6
:1014F000DEB79B838A8319820EC08981282F30E052
:101500008A819B81FC01E20FF31F80810E944D0ABA
:1015100089818F5F89838981282F30E08A819B812F
:10152000FC01E20FF31F8081882339F70F900F90A1
:101530000F90CF91DF9108950F931F93DF93CF9377
:1015400000D00F92CDB7DEB79B838A831982898141
:10155000282F30E08A819B818C01020F131F0E948B
:10156000640AF80180830FC089818F5F8983898134
:10157000282F30E08A819B818C01020F131F0E946B
:10158000640AF80180838981282F30E08A819B8159
:10159000FC01E20FF31F8081833231F78981282F0C
:1015A00030E08A819B81FC01E20FF31F10820F90D3
:1015B0000F900F90CF91DF911F910F910895DF93BE
:1015C000CF93CDB7DEB760970FB6F894DEBF0FBEEE
:1015D000CDBF81E060E040E00E947F0681E061E0F5
:1015E00040E00E947F0681E062E040E00E947F06CA
:1015F00081E063E040E00E947F0681E064E040E03B
:101600000E947F0681E065E040E00E947F0681E065
:1016100066E040E00E947F0681E067E040E00E94D3
:101620007F06188AABC081E0688941E00E947F068E
:1016300081E060E040E00E946A071F8622C08F853B
:10164000982F9C5F81E0692F0E9455088823B1F490
:101650008889882F90E0880F991F880F991F982FED
:101660008F85890F8F5F0E94C30B60960FB6F89429
:10167000DEBF0FBECDBFCF91DF9108958F858F5F05
:101680008F878F858430D8F281E0688940E00E949E
:101690007F0680E090E0A0EAB0E48B879C87AD876E
:1016A000BE876B857C858D859E8520E030E04AEF86
:1016B00054E40E941F02DC01CB018F839887A98725
:1016C000BA876F81788589859A8520E030E040E887
:1016D0005FE30E94790388232CF481E090E09E83ED
:1016E0008D833FC06F81788589859A8520E03FEFA3
:1016F0004FE757E40E94190318164CF56B857C855B
:101700008D859E8520E030E040E251E40E941F027A
:10171000DC01CB01BC01CD010E944900DC01CB0101
:101720009E838D830FC088EC90E09C838B838B819C
:101730009C810197F1F79C838B838D819E8101971A
:101740009E838D838D819E81009769F714C06F8180
:10175000788589859A850E944900DC01CB019E83AA
:101760008D838D819E819A83898389819A81019756
:10177000F1F79A83898388898F5F888B8889843081
:1017800008F451CF4ECFDF93CF9300D000D0CDB728
:10179000DEB78A8319828A81282F30E03C832B832D
:1017A0008B819C818830910509F470C02B813C812C
:1017B000293031055CF58B819C818430910509F4D9
:1017C00059C02B813C81253031059CF48B819C8153
:1017D0008230910509F448C02B813C8123303105CA
:1017E0000CF045C08B819C818130910509F439C092
:1017F00067C02B813C812630310509F441C08B81C3
:101800009C81873091050CF03EC037C02B813C8114
:101810002C30310509F446C08B819C818D309105B7
:101820005CF42B813C812A303105B1F18B819C81A4
:101830008B309105A4F52DC02B813C812E303105D4
:10184000B9F18B819C818E3091057CF12B813C819B
:101850002F30310579F18B819C818031910569F1BF
:101860002FC087E089832EC088E089832BC089E060
:10187000898328C085E2898325C084E0898322C0CA
:1018800085E089831FC086E089831CC08AE2898342
:1018900019C081E0898316C082E0898313C083E088
:1018A000898310C08DE289830DC08DE089830AC0D1
:1018B000198208C08DE3898305C08BE2898302C049
:1018C0008A81898389810F900F900F900F90CF911B
:1018D000DF910895DF93CF93CDB7DEB72E970FB684
:1018E000F894DEBF0FBECDBF83E064E041E00E940C
:1018F0007F0683E065E041E00E947F0680E090E0A3
:10190000A0EAB1E48B879C87AD87BE876B857C8519
:101910008D859E8520E030E04AEF54E40E941F024E
:10192000DC01CB018F839887A987BA876F8178857F
:1019300089859A8520E030E040E85FE30E947903E2
:1019400088232CF481E090E09E838D833FC06F81DB
:10195000788589859A8520E03FEF4FE757E40E941C
:10196000190318164CF56B857C858D859E8520E0C6
:1019700030E040E251E40E941F02DC01CB01BC01D7
:10198000CD010E944900DC01CB019E838D830FC0F5
:1019900088EC90E09C838B838B819C810197F1F78D
:1019A0009C838B838D819E8101979E838D838D8106
:1019B0009E81009769F714C06F81788589859A8523
:1019C0000E944900DC01CB019E838D838D819E8125
:1019D0009A83898389819A810197F1F79A83898310
:1019E00080E06FEF0E94F10888E30E94060D8CE012
:1019F0000E94060D81E00E94060D2E960FB6F89407
:101A0000DEBF0FBECDBFCF91DF910895DF93CF939F
:101A1000CDB7DEB7E9970FB6F894DEBF0FBECDBFE6
:101A200089AF83E064E040E00E946A0780E090E0D4
:101A3000A0E8BFE38DAB9EABAFABB8AF6DA97EA9FD
:101A40008FA998AD20E030E04AEF54E40E941F02D5
:101A5000DC01CB0189AB9AABABABBCAB69A97AA972
:101A60008BA99CA920E030E040E85FE30E94790365
:101A700088232CF481E090E098AB8FA73FC069A940
:101A80007AA98BA99CA920E03FEF4FE757E40E9479
:101A9000190318164CF56DA97EA98FA998AD20E001
:101AA00030E040E251E40E941F02DC01CB01BC01A6
:101AB000CD010E944900DC01CB0198AB8FA70FC07C
:101AC00088EC90E09EA78DA78DA59EA50197F1F7C4
:101AD0009EA78DA78FA598A9019798AB8FA78FA5D3
:101AE00098A9009769F714C069A97AA98BA99CA93C
:101AF0000E944900DC01CB0198AB8FA78FA598A964
:101B00009CA78BA78BA59CA50197F1F79CA78BA7FA
:101B100083E065E041E00E946A0780E090E0A0E891
:101B2000BFE38FA398A7A9A7BAA76FA178A589A596
:101B30009AA520E030E04AEF54E40E941F02DC0145
:101B4000CB018BA39CA3ADA3BEA36BA17CA18DA154
:101B50009EA120E030E040E85FE30E947903882303
:101B60002CF481E090E09AA389A33FC06BA17CA1F3
:101B70008DA19EA120E03FEF4FE757E40E9419039B
:101B800018164CF56FA178A589A59AA520E030E03C
:101B900040E251E40E941F02DC01CB01BC01CD01F7
:101BA0000E944900DC01CB019AA389A30FC088ECF5
:101BB00090E098A38F8F8F8D98A10197F1F798A34C
:101BC0008F8F89A19AA101979AA389A389A19AA12C
:101BD000009769F714C06BA17CA18DA19EA10E9402
:101BE0004900DC01CB019AA389A389A19AA19E8F08
:101BF0008D8F8D8D9E8D0197F1F79E8F8D8F80E05B
:101C000069AD0E94350980E090E0A0E8BFE3898FCC
:101C10009A8FAB8FBC8F698D7A8D8B8D9C8D20E0D8
:101C200030E04AEF54E40E941F02DC01CB018D8BAF
:101C30009E8BAF8BB88F6D897E898F89988D20E0C0
:101C400030E040E85FE30E94790388232CF481E0D0
:101C500090E09C8B8B8B3FC06D897E898F89988D9E
:101C600020E03FEF4FE757E40E94190318164CF5A8
:101C7000698D7A8D8B8D9C8D20E030E040E251E4BF
:101C80000E941F02DC01CB01BC01CD010E94490072
:101C9000DC01CB019C8B8B8B0FC088EC90E09A8B86
:101CA000898B89899A890197F1F79A8B898B8B891E
:101CB0009C8901979C8B8B8B8B899C89009769F7FA
:101CC00014C06D897E898F89988D0E944900DC013E
:101CD000CB019C8B8B8B8B899C89988B8F878F8575
:101CE00098890197F1F7988B8F8783E065E040E052
:101CF0000E946A0780E090E0A0E8BFE38B879C87A2
:101D0000AD87BE876B857C858D859E8520E030E024
:101D10004AEF54E40E941F02DC01CB018F839887B5
:101D2000A987BA876F81788589859A8520E030E018
:101D300040E85FE30E94790388232CF481E090E07F
:101D40009E838D833FC06F81788589859A8520E049
:101D50003FEF4FE757E40E94190318164CF56B85C7
:101D60007C858D859E8520E030E040E251E40E9434
:101D70001F02DC01CB01BC01CD010E944900DC0146
:101D8000CB019E838D830FC088EC90E09C838B8376
:101D90008B819C810197F1F79C838B838D819E8140
:101DA00001979E838D838D819E81009769F714C072
:101DB0006F81788589859A850E944900DC01CB0175
:101DC0009E838D838D819E819A83898389819A8167
:101DD0000197F1F79A838983E9960FB6F894DEBFED
:101DE0000FBECDBFCF91DF910895DF93CF93CDB7D5
:101DF000DEB7E9970FB6F894DEBF0FBECDBF89AF4F
:101E000083E064E041E00E946A0780E090E0A0E89F
:101E1000BFE38DAB9EABAFABB8AF6DA97EA98FA969
:101E200098AD20E030E04AEF54E40E941F02DC014C
:101E3000CB0189AB9AABABABBCAB69A97AA98BA937
:101E40009CA920E030E040E85FE30E94790388230A
:101E50002CF481E090E098AB8FA73FC069A97AA9E4
:101E60008BA99CA920E03FEF4FE757E40E9419039C
:101E700018164CF56DA97EA98FA998AD20E030E029
:101E800040E251E40E941F02DC01CB01BC01CD0104
:101E90000E944900DC01CB0198AB8FA70FC088ECF2
:101EA00090E09EA78DA78DA59EA50197F1F79EA70F
:101EB0008DA78FA598A9019798AB8FA78FA598A9F3
:101EC000009769F714C069A97AA98BA99CA90E94F7
:101ED0004900DC01CB0198AB8FA78FA598A99CA7DF
:101EE0008BA78BA59CA50197F1F79CA78BA783E0F7
:101EF00065E041E00E946A0780E090E0A0E8BFE36F
:101F00008FA398A7A9A7BAA76FA178A589A59AA515
:101F100020E030E04AEF54E40E941F02DC01CB01D4
:101F20008BA39CA3ADA3BEA36BA17CA18DA19EA1FD
:101F300020E030E040E85FE30E94790388232CF43E
:101F400081E090E09AA389A33FC06BA17CA18DA101
:101F50009EA120E03FEF4FE757E40E9419031816B7
:101F60004CF56FA178A589A59AA520E030E040E264
:101F700051E40E941F02DC01CB01BC01CD010E9493
:101F80004900DC01CB019AA389A30FC088EC90E043
:101F900098A38F8F8F8D98A10197F1F798A38F8FBA
:101FA00089A19AA101979AA389A389A19AA10097CF
:101FB00069F714C06BA17CA18DA19EA10E9449006C
:101FC000DC01CB019AA389A389A19AA19E8F8D8F51
:101FD0008D8D9E8D0197F1F79E8F8D8F80E069AD7D
:101FE0000E94350980E090E0A0E8BFE3898F9A8FD6
:101FF000AB8FBC8F698D7A8D8B8D9C8D20E030E00E
:102000004AEF54E40E941F02DC01CB018D8B9E8BB2
:10201000AF8BB88F6D897E898F89988D20E030E0F5
:1020200040E85FE30E94790388232CF481E090E08C
:102030009C8B8B8B3FC06D897E898F89988D20E02A
:102040003FEF4FE757E40E94190318164CF5698DCE
:102050007A8D8B8D9C8D20E030E040E251E40E942F
:102060001F02DC01CB01BC01CD010E944900DC0153
:10207000CB019C8B8B8B0FC088EC90E09A8B898B6B
:1020800089899A890197F1F79A8B898B8B899C8929
:1020900001979C8B8B8B8B899C89009769F714C067
:1020A0006D897E898F89988D0E944900DC01CB0162
:1020B0009C8B8B8B8B899C89988B8F878F8598893C
:1020C0000197F1F7988B8F8783E065E040E00E94ED
:1020D0006A0780E090E0A0E8BFE38B879C87AD872C
:1020E000BE876B857C858D859E8520E030E04AEF3C
:1020F00054E40E941F02DC01CB018F839887A987DB
:10210000BA876F81788589859A8520E030E040E83C
:102110005FE30E94790388232CF481E090E09E83A2
:102120008D833FC06F81788589859A8520E03FEF58
:102130004FE757E40E94190318164CF56B857C8510
:102140008D859E8520E030E040E251E40E941F0230
:10215000DC01CB01BC01CD010E944900DC01CB01B7
:102160009E838D830FC088EC90E09C838B838B8152
:102170009C810197F1F79C838B838D819E810197D0
:102180009E838D838D819E81009769F714C06F8136
:10219000788589859A850E944900DC01CB019E8360
:1021A0008D838D819E819A83898389819A8101970C
:1021B000F1F79A838983E9960FB6F894DEBF0FBED4
:1021C000CDBFCF91DF910895DF93CF9300D0CDB7EE
:1021D000DEB79A8389830BC0E981FA8120818981E6
:1021E0009A8101969A838983822F0E94F50EE98154
:1021F000FA818081882381F70F900F90CF91DF9132
:102200000895DF93CF9300D000D00F92CDB7DEB703
:102210008A836B8319828A81282F30E03D832C8347
:102220008C819D8181309105C1F02C813D812230CE
:1022300031052CF48C819D81009761F019C02C81AF
:102240003D812230310569F08C819D81833091057B
:1022500061F00EC08B8189830BC08B81805C898388
:1022600007C08B81805F898303C08B81805B8983FA
:10227000898180680E94060D0F900F900F900F903B
:102280000F90CF91DF910895DF93CF9300D000D0CE
:10229000CDB7DEB789836A835C834B8389816A818A
:1022A0000E9401118B819C810E94E4100F900F907D
:1022B0000F900F90CF91DF910895DF93CF93CDB71B
:1022C000DEB781E00E94060DCF91DF910895DF9384
:1022D000CF93CDB7DEB762970FB6F894DEBF0FBECF
:1022E000CDBF9A8B898B89899A899E012F5F3F4F39
:1022F000B9014AE050E00E947A1BCE0101960E948B
:10230000E41062960FB6F894DEBF0FBECDBFCF913A
:10231000DF910895DF93CF93CDB7DEB7809163014E
:102320008F5F80936301CF91DF910895DF93CF9307
:10233000CDB7DEB76E970FB6F894DEBF0FBECDBF38
:102340000E945D1120E630E080E060E0A9010E947B
:10235000441181E060E00E9401111E8E08C10E94BC
:10236000DF0A8093610176C00E94DF0A80936101D9
:1023700080E090E0A8E4B2E4898F9A8FAB8FBC8FA5
:10238000698D7A8D8B8D9C8D20E030E04AEF54E48E
:102390000E941F02DC01CB018D8B9E8BAF8BB88F0F
:1023A0006D897E898F89988D20E030E040E85FE379
:1023B0000E94790388232CF481E090E09C8B8B8B26
:1023C0003FC06D897E898F89988D20E03FEF4FE770
:1023D00057E40E94190318164CF5698D7A8D8B8D80
:1023E0009C8D20E030E040E251E40E941F02DC01BD
:1023F000CB01BC01CD010E944900DC01CB019C8BCB
:102400008B8B0FC088EC90E09A8B898B89899A8995
:102410000197F1F79A8B898B8B899C8901979C8B0B
:102420008B8B8B899C89009769F714C06D897E8995
:102430008F89988D0E944900DC01CB019C8B8B8B8E
:102440008B899C89988B8F878F8598890197F1F765
:10245000988B8F87809161018A3008F085CF8E8DAF
:10246000882F90E020916101FC01E45AFE4F208307
:102470008E8D982F9B5F20E730E081E0692FA901C6
:102480000E94441180E090E0AAE7B3E48B879C8728
:10249000AD87BE876B857C858D859E8520E030E08D
:1024A0004AEF54E40E941F02DC01CB018F8398871E
:1024B000A987BA876F81788589859A8520E030E081
:1024C00040E85FE30E94790388232CF481E090E0E8
:1024D0009E838D833FC06F81788589859A8520E0B2
:1024E0003FEF4FE757E40E94190318164CF56B8530
:1024F0007C858D859E8520E030E040E251E40E949D
:102500001F02DC01CB01BC01CD010E944900DC01AE
:10251000CB019E838D830FC088EC90E09C838B83DE
:102520008B819C810197F1F79C838B838D819E81A8
:1025300001979E838D838D819E81009769F714C0DA
:102540006F81788589859A850E944900DC01CB01DD
:102550009E838D838D819E819A83898389819A81CF
:102560000197F1F79A8389838E8D8F5F8E8F8E8D81
:10257000853008F4F4CE81E20E944D0A0E94640A7C
:102580008131E1F71D8E0CC08D8D882F90E0FC010C
:10259000E45AFE4F80810E944D0A8D8D8F5F8D8F92
:1025A0008D8D853088F30E94640A8631E1F76E963E
:1025B0000FB6F894DEBF0FBECDBFCF91DF91089567
:1025C000DF93CF93CDB7DEB72F970FB6F894DEBF6A
:1025D0000FBECDBF0E94640A853219F481E08F8757
:1025E0007CC00E945D1122E730E080E060E0A9013C
:1025F0000E94441180E090E0AAEFB3E48B879C87AF
:10260000AD87BE876B857C858D859E8520E030E01B
:102610004AEF54E40E941F02DC01CB018F839887AC
:10262000A987BA876F81788589859A8520E030E00F
:1026300040E85FE30E94790388232CF481E090E076
:102640009E838D833FC06F81788589859A8520E040
:102650003FEF4FE757E40E94190318164CF56B85BE
:102660007C858D859E8520E030E040E251E40E942B
:102670001F02DC01CB01BC01CD010E944900DC013D
:10268000CB019E838D830FC088EC90E09C838B836D
:102690008B819C810197F1F79C838B838D819E8137
:1026A00001979E838D838D819E81009769F714C069
:1026B0006F81788589859A850E944900DC01CB016C
:1026C0009E838D838D819E819A83898389819A815E
:1026D0000197F1F79A8389831F868F852F960FB60E
:1026E000F894DEBF0FBECDBFCF91DF910895DF9389
:1026F000CF9300D0CDB7DEB79A83898382E20E9460
:102700004D0A0E945D1189819A810E9409061092EA
:10271000630107C021E830E080E060E0A9010E9489
:102720004411809163018330A9F70E945D111092DA
:10273000630107C020E930E080E060E0A9010E9469
:102740004411809163018330A9F70E945D111092BA
:10275000630107C02CE930E080E060E0A9010E943D
:102760004411809163018330A9F70F900F90CF91AE
:10277000DF910895DF93CF93CDB7DEB7AF970FB654
:10278000F894DEBF0FBECDBF9FA78EA716C20E94D2
:102790005D112BEA30E080E060E0A9010E94441165
:1027A00029EB30E081E060E0A9010E9444110E9421
:1027B000DF0A8093610176C00E94DF0A8093610185
:1027C00080E090E0A8E4B2E48FA398A7A9A7BAA7F5
:1027D0006FA178A589A59AA520E030E04AEF54E4DE
:1027E0000E941F02DC01CB018BA39CA3ADA3BEA35F
:1027F0006BA17CA18DA19EA120E030E040E85FE3C9
:102800000E94790388232CF481E090E09AA389A3A5
:102810003FC06BA17CA18DA19EA120E03FEF4FE7BF
:1028200057E40E94190318164CF56FA178A589A5E5
:102830009AA520E030E040E251E40E941F02DC0152
:10284000CB01BC01CD010E944900DC01CB019AA360
:1028500089A30FC088EC90E098A38F8F8F8D98A1EB
:102860000197F1F798A38F8F89A19AA101979AA355
:1028700089A389A19AA1009769F714C06BA17CA1D3
:102880008DA19EA10E944900DC01CB019AA389A3DE
:1028900089A19AA19E8F8D8F8D8D9E8D0197F1F7C5
:1028A0009E8F8D8F809161018B3229F08091610123
:1028B0008D3209F081CF809161018B3209F0BAC06D
:1028C0001DA60E9496110E94E012882F90E09CA7FE
:1028D0008BA78BA59CA58130910509F0A7C01DA6EB
:1028E0008EA59FA50E947713A5C00E9496110E94F5
:1028F000E012813039F48EA59FA50E94771383E002
:102900008DA791C08DA5813009F08DC083E20E9412
:102910004D0A0E94640A8131E1F70E945D110E9414
:102920005D1129EC30E080E064E0A9010E944411CF
:1029300022ED30E081E065E0A9010E94441180E0D1
:1029400090E4ACE9B5E4898F9A8FAB8FBC8F698D29
:102950007A8D8B8D9C8D20E030E04AEF54E40E940C
:102960001F02DC01CB018D8B9E8BAF8BB88F6D89E5
:102970007E898F89988D20E030E040E85FE30E94F7
:10298000790388232CF481E090E09C8B8B8B3FC0F3
:102990006D897E898F89988D20E03FEF4FE757E45E
:1029A0000E94190318164CF5698D7A8D8B8D9C8DBC
:1029B00020E030E040E251E40E941F02DC01CB0144
:1029C000BC01CD010E944900DC01CB019C8B8B8BAB
:1029D0000FC088EC90E09A8B898B89899A8901973E
:1029E000F1F79A8B898B8B899C8901979C8B8B8BB8
:1029F0008B899C89009769F714C06D897E898F89BE
:102A0000988D0E944900DC01CB019C8B8B8B8B89BC
:102A10009C89988B8F878F8598890197F1F7988B80
:102A20008F8783E08DA78DA58F5F8DA78DA58330C0
:102A300008F45BCF809161018D3209F0BEC00E9425
:102A400096110E94E012813009F0B0C081E08093BD
:102A5000640110926201B1C00E9496110E94E012BE
:102A6000813049F481E0809364011092620184E036
:102A70008093650196C080916501813009F091C015
:102A800083E20E944D0A0E94640A8131E1F70E94AC
:102A90005D1129EC30E080E064E0A9010E9444115E
:102AA00022ED30E081E065E0A9010E94441180E060
:102AB00090E4ACE9B5E48B879C87AD87BE876B85D6
:102AC0007C858D859E8520E030E04AEF54E40E94AD
:102AD0001F02DC01CB018F839887A987BA876F819A
:102AE000788589859A8520E030E040E85FE30E94A0
:102AF000790388232CF481E090E09E838D833FC08E
:102B00006F81788589859A8520E03FEF4FE757E40C
:102B10000E94190318164CF56B857C858D859E8562
:102B200020E030E040E251E40E941F02DC01CB01D2
:102B3000BC01CD010E944900DC01CB019E838D8345
:102B40000FC088EC90E09C838B838B819C810197E4
:102B5000F1F79C838B838D819E8101979E838D836A
:102B60008D819E81009769F714C06F817885898572
:102B70009A850E944900DC01CB019E838D838D8163
:102B80009E819A83898389819A810197F1F79A833B
:102B900089831092640181E08093620184E08093D4
:102BA0006501809165018F5F80936501809165016A
:102BB000843008F451CF109265018091640188231C
:102BC00009F4E5CDAF960FB6F894DEBF0FBECDBFCA
:102BD000CF91DF910895DF93CF9300D0CDB7DEB7CB
:102BE00080E20E944D0A0E94640A8131E1F71A8254
:102BF00010C08A81882F90E0FC01EE5AFE4F808140
:102C00000E944D0A0E94640A8631E1F78A818F5F33
:102C10008A838A81853068F3198210C08981882F60
:102C200090E0FC01E95AFE4F80810E944D0A0E940B
:102C3000640A8631E1F789818F5F898389818530D4
:102C400068F385E10E944D0A0F900F90CF91DF91BC
:102C50000895DF93CF93CDB7DEB72E970FB6F894D4
:102C6000DEBF0FBECDBF0E94640A853231F481E021
:102C7000809362011092640180C00E945D1129ED71
:102C800030E080E060E0A9010E94441180E090E023
:102C9000AAE7B4E48B879C87AD87BE876B857C856C
:102CA0008D859E8520E030E04AEF54E40E941F02AB
:102CB000DC01CB018F839887A987BA876F817885DC
:102CC00089859A8520E030E040E85FE30E9479033F
:102CD00088232CF481E090E09E838D833FC06F8138
:102CE000788589859A8520E03FEF4FE757E40E9479
:102CF000190318164CF56B857C858D859E8520E023
:102D000030E040E251E40E941F02DC01CB01BC0133
:102D1000CD010E944900DC01CB019E838D830FC051
:102D200088EC90E09C838B838B819C810197F1F7E9
:102D30009C838B838D819E8101979E838D838D8162
:102D40009E81009769F714C06F81788589859A857F
:102D50000E944900DC01CB019E838D838D819E8181
:102D60009A83898389819A810197F1F79A8389836C
:102D70001092620181E0809364012E960FB6F89460
:102D8000DEBF0FBECDBFCF91DF910895DF93CF930C
:102D9000CDB7DEB7AB970FB6F894DEBF0FBECDBF91
:102DA0000E945D1126EE30E080E060E0A9010E9403
:102DB000441127EF30E081E060E0A9010E94441156
:102DC0001BA601C10E94DF0A8093610176C00E94A8
:102DD000DF0A8093610180E090E0A8E4B2E48FA371
:102DE00098A7A9A7BAA76FA178A589A59AA520E059
:102DF00030E04AEF54E40E941F02DC01CB018BA3B8
:102E00009CA3ADA3BEA36BA17CA18DA19EA120E03C
:102E100030E040E85FE30E94790388232CF481E0EE
:102E200090E09AA389A33FC06BA17CA18DA19EA134
:102E300020E03FEF4FE757E40E94190318164CF5C6
:102E40006FA178A589A59AA520E030E040E251E481
:102E50000E941F02DC01CB01BC01CD010E94490090
:102E6000DC01CB019AA389A30FC088EC90E098A362
:102E70008F8F8F8D98A10197F1F798A38F8F89A1DC
:102E80009AA101979AA389A389A19AA1009769F7AA
:102E900014C06BA17CA18DA19EA10E944900DC0100
:102EA000CB019AA389A389A19AA19E8F8D8F8D8D25
:102EB0009E8D0197F1F79E8F8D8F809161018A30F1
:102EC00008F085CF8BA5882F90E020916101FC014F
:102ED000E95AFE4F20838AE20E94F50E80E090E0DE
:102EE000AAE7B3E4898F9A8FAB8FBC8F698D7A8DF7
:102EF0008B8D9C8D20E030E04AEF54E40E941F024D
:102F0000DC01CB018D8B9E8BAF8BB88F6D897E8959
:102F10008F89988D20E030E040E85FE30E947903DC
:102F200088232CF481E090E09C8B8B8B3FC06D89D3
:102F30007E898F89988D20E03FEF4FE757E40E940C
:102F4000190318164CF5698D7A8D8B8D9C8D20E0B8
:102F500030E040E251E40E941F02DC01CB01BC01E1
:102F6000CD010E944900DC01CB019C8B8B8B0FC0F3
:102F700088EC90E09A8B898B89899A890197F1F77F
:102F80009A8B898B8B899C8901979C8B8B8B8B89E6
:102F90009C89009769F714C06D897E898F89988D07
:102FA0000E944900DC01CB019C8B8B8B8B899C8917
:102FB000988B8F878F8598890197F1F7988B8F87EA
:102FC0008BA58F5F8BA78BA5853008F4FBCE0E9465
:102FD0005D1122E031E080E060E0A9010E9444112F
:102FE00076C00E94DF0A8093610180E090E0A8E44F
:102FF000B2E48B879C87AD87BE876B857C858D858A
:103000009E8520E030E04AEF54E40E941F02DC017C
:10301000CB018F839887A987BA876F817885898547
:103020009A8520E030E040E85FE30E94790388233E
:103030002CF481E090E09E838D833FC06F81788582
:1030400089859A8520E03FEF4FE757E40E941903F6
:1030500018164CF56B857C858D859E8520E030E0CB
:1030600040E251E40E941F02DC01CB01BC01CD0112
:103070000E944900DC01CB019E838D830FC088EC48
:1030800090E09C838B838B819C810197F1F79C83DB
:103090008B838D819E8101979E838D838D819E81FF
:1030A000009769F714C06F81788589859A850E9499
:1030B0004900DC01CB019E838D838D819E819A83A3
:1030C000898389819A810197F1F79A838983809115
:1030D00061018D3309F085CFAB960FB6F894DEBF52
:1030E0000FBECDBFCF91DF910895DF93CF93CDB7C2
:1030F000DEB7AB970FB6F894DEBF0FBECDBF0E9410
:103100005D112EE031E080E060E0A9010E944411F1
:1031100081E065E00E9401111BA608C10E94DF0A40
:103120008093610176C00E94DF0A8093610180E094
:1031300090E0A8E4B2E48FA398A7A9A7BAA76FA1CB
:1031400078A589A59AA520E030E04AEF54E40E94D2
:103150001F02DC01CB018BA39CA3ADA3BEA36BA17B
:103160007CA18DA19EA120E030E040E85FE30E94B9
:10317000790388232CF481E090E09AA389A33FC0CF
:103180006BA17CA18DA19EA120E03FEF4FE757E40A
:103190000E94190318164CF56FA178A589A59AA568
:1031A00020E030E040E251E40E941F02DC01CB014C
:1031B000BC01CD010E944900DC01CB019AA389A387
:1031C0000FC088EC90E098A38F8F8F8D98A1019706
:1031D000F1F798A38F8F89A19AA101979AA389A348
:1031E00089A19AA1009769F714C06BA17CA18DA158
:1031F0009EA10E944900DC01CB019AA389A389A169
:103200009AA19E8F8D8F8D8D9E8D0197F1F79E8F48
:103210008D8F809161018A3008F085CF8BA5982F22
:103220009B5F20E730E081E0692FA9010E944411F3
:103230008BA5882F90E020916101FC01EE5AFE4F92
:10324000208380E090E0AAE7B3E4898F9A8FAB8F68
:10325000BC8F698D7A8D8B8D9C8D20E030E04AEF9C
:1032600054E40E941F02DC01CB018D8B9E8BAF8B3F
:10327000B88F6D897E898F89988D20E030E040E895
:103280005FE30E94790388232CF481E090E09C8B1B
:103290008B8B3FC06D897E898F89988D20E03FEFB1
:1032A0004FE757E40E94190318164CF5698D7A8D83
:1032B0008B8D9C8D20E030E040E251E40E941F02A3
:1032C000DC01CB01BC01CD010E944900DC01CB0136
:1032D0009C8B8B8B0FC088EC90E09A8B898B8989B3
:1032E0009A890197F1F79A8B898B8B899C89019731
:1032F0009C8B8B8B8B899C89009769F714C06D8997
:103300007E898F89988D0E944900DC01CB019C8BBE
:103310008B8B8B899C89988B8F878F859889019758
:10332000F1F7988B8F878BA58F5F8BA78BA5853047
:1033300008F4F4CE0E945D1122E031E080E060E00C
:10334000A9010E94441176C00E94DF0A80936101A6
:1033500080E090E0A8E4B2E48B879C87AD87BE87CD
:103360006B857C858D859E8520E030E04AEF54E4B6
:103370000E941F02DC01CB018F839887A987BA873F
:103380006F81788589859A8520E030E040E85FE3A9
:103390000E94790388232CF481E090E09E838D8342
:1033A0003FC06F81788589859A8520E03FEF4FE7A0
:1033B00057E40E94190318164CF56B857C858D85A2
:1033C0009E8520E030E040E251E40E941F02DC01D3
:1033D000CB01BC01CD010E944900DC01CB019E83E1
:1033E0008D830FC088EC90E09C838B838B819C81C4
:1033F0000197F1F79C838B838D819E8101979E833A
:103400008D838D819E81009769F714C06F817885C7
:1034100089859A850E944900DC01CB019E838D83BA
:103420008D819E819A83898389819A810197F1F7A1
:103430009A838983809161018D3309F085CFAB96A2
:103440000FB6F894DEBF0FBECDBFCF91DF910895C8
:10345000DF93CF93CDB7DEB7A5970FB6F894DEBF55
:103460000FBECDBFAFE5B0E0EFE5F0E08081806852
:103470008C930E946A0CCE010F969D8F8C8FE9E48D
:10348000F1E0FF8FEE8FF6E0F8A3EE8DFF8D008068
:103490008E8D9F8D01969F8F8E8FEC8DFD8D00827E
:1034A0008C8D9D8D01969D8F8C8F98A1915098A3A6
:1034B000E8A1EE2351F78AE891E10E946D06CE0162
:1034C0000F960E940906CE0145969AA389A3E2E4CD
:1034D000F1E0FCA3EBA3F7E0FDA3EBA1FCA10080CE
:1034E0008BA19CA101969CA38BA3E9A1FAA10082C8
:1034F00089A19AA101969AA389A39DA191509DA308
:10350000EDA1EE2351F7CE0145960E94BF090E941E
:103510005D112DE131E080E063E0A9010E944411DA
:103520002AE231E081E061E0A9010E94441180E0DB
:1035300090E0AAEFB3E48B879C87AD87BE876B854D
:103540007C858D859E8520E030E04AEF54E40E9422
:103550001F02DC01CB018F839887A987BA876F810F
:10356000788589859A8520E030E040E85FE30E9415
:10357000790388232CF481E090E09E838D833FC003
:103580006F81788589859A8520E03FEF4FE757E482
:103590000E94190318164CF56B857C858D859E85D8
:1035A00020E030E040E251E40E941F02DC01CB0148
:1035B000BC01CD010E944900DC01CB019E838D83BB
:1035C0000FC088EC90E09C838B838B819C8101975A
:1035D000F1F79C838B838D819E8101979E838D83E0
:1035E0008D819E81009769F714C06F8178858985E8
:1035F0009A850E944900DC01CB019E838D838D81D9
:103600009E819A83898389819A810197F1F79A83B0
:10361000898380E10E944D0A80916201882341F4F0
:103620000E9475180E94C6160E94EB150E9429166A
:1036300080916201813081F7CE010F960E94BA130A
:10364000EBCFA1E21A2EAA1BBB1BFD010DC0AA1FC6
:10365000BB1FEE1FFF1FA217B307E407F50720F0FB
:10366000A21BB30BE40BF50B661F771F881F991F76
:103670001A9469F760957095809590959B01AC01BF
:10368000BD01CF0108952F923F924F925F926F92AA
:103690007F928F929F92AF92BF92CF92DF92EF92E2
:1036A000FF920F931F93CF93DF93CDB7DEB7CA1B63
:1036B000DB0B0FB6F894DEBF0FBECDBF09942A888E
:1036C000398848885F846E847D848C849B84AA8436
:1036D000B984C884DF80EE80FD800C811B81AA81C3
:1036E000B981CE0FD11D0FB6F894DEBF0FBECDBF8E
:1036F000ED010895FB019F01E8944230C4F045328A
:10370000B4F44A3029F497FB1EF4909581959F4FAD
:10371000642F77270E94AB1B805D8A330CF0895D94
:103720008193CB010097A1F716F45DE251931082CB
:10373000C9010C949B1BDC01FC01672F719177235D
:10374000E1F7329704C07C916D9370836291AE175C
:10375000BF07C8F30895AA1BBB1B51E107C0AA1FEE
:10376000BB1FA617B70710F0A61BB70B881F991F22
:103770005A95A9F780959095BC01CD010895F894CC
:02378000FFCF79
:10378200506C7A20456E74657220506173733A00F2
:103792002A00494E434F52524543542050415353FD
:1037A200004F70656E696E6720446F6F722E2E0037
:1037B200446F6F72204F70656E656400436C6F7367
:1037C200696E6720446F6F722E2E002B203A204FB5
:1037D20070656E20446F6F72002D203A204368613D
:1037E2006E67652050617373005741524E4E494EC9
:1037F200470042555A5A4552004E4F54204D4154AB
:103802004348494E4700506C7A2052652D656E74CC
:103812006572205468650053616D65205061737351
:103822003A00506C7A205072657373203D004164F7
:1038320064203173742050617373203A00446F6FB7
:1038420072204C6F636B65722000536563757269F9
:1038520074792053797374656D00000000000000D4
:10386200000003000080250000050400007017001E
:00000001FF
